{
  "_format": "hh-sol-artifact-1",
  "contractName": "MyNftToken",
  "sourceName": "contracts/MyNftToken.sol",
  "abi": [
    {
      "inputs": [],
      "stateMutability": "nonpayable",
      "type": "constructor"
    },
    {
      "anonymous": false,
      "inputs": [
        {
          "indexed": true,
          "internalType": "address",
          "name": "owner",
          "type": "address"
        },
        {
          "indexed": true,
          "internalType": "address",
          "name": "approved",
          "type": "address"
        },
        {
          "indexed": true,
          "internalType": "uint256",
          "name": "tokenId",
          "type": "uint256"
        }
      ],
      "name": "Approval",
      "type": "event"
    },
    {
      "anonymous": false,
      "inputs": [
        {
          "indexed": true,
          "internalType": "address",
          "name": "owner",
          "type": "address"
        },
        {
          "indexed": true,
          "internalType": "address",
          "name": "operator",
          "type": "address"
        },
        {
          "indexed": false,
          "internalType": "bool",
          "name": "approved",
          "type": "bool"
        }
      ],
      "name": "ApprovalForAll",
      "type": "event"
    },
    {
      "anonymous": false,
      "inputs": [
        {
          "indexed": true,
          "internalType": "address",
          "name": "delegator",
          "type": "address"
        },
        {
          "indexed": true,
          "internalType": "address",
          "name": "fromDelegate",
          "type": "address"
        },
        {
          "indexed": true,
          "internalType": "address",
          "name": "toDelegate",
          "type": "address"
        }
      ],
      "name": "DelegateChanged",
      "type": "event"
    },
    {
      "anonymous": false,
      "inputs": [
        {
          "indexed": true,
          "internalType": "address",
          "name": "delegate",
          "type": "address"
        },
        {
          "indexed": false,
          "internalType": "uint256",
          "name": "previousBalance",
          "type": "uint256"
        },
        {
          "indexed": false,
          "internalType": "uint256",
          "name": "newBalance",
          "type": "uint256"
        }
      ],
      "name": "DelegateVotesChanged",
      "type": "event"
    },
    {
      "anonymous": false,
      "inputs": [
        {
          "indexed": true,
          "internalType": "address",
          "name": "previousOwner",
          "type": "address"
        },
        {
          "indexed": true,
          "internalType": "address",
          "name": "newOwner",
          "type": "address"
        }
      ],
      "name": "OwnershipTransferred",
      "type": "event"
    },
    {
      "anonymous": false,
      "inputs": [
        {
          "indexed": true,
          "internalType": "address",
          "name": "from",
          "type": "address"
        },
        {
          "indexed": true,
          "internalType": "address",
          "name": "to",
          "type": "address"
        },
        {
          "indexed": true,
          "internalType": "uint256",
          "name": "tokenId",
          "type": "uint256"
        }
      ],
      "name": "Transfer",
      "type": "event"
    },
    {
      "inputs": [],
      "name": "DOMAIN_SEPARATOR",
      "outputs": [
        {
          "internalType": "bytes32",
          "name": "",
          "type": "bytes32"
        }
      ],
      "stateMutability": "view",
      "type": "function"
    },
    {
      "inputs": [
        {
          "internalType": "address",
          "name": "to",
          "type": "address"
        },
        {
          "internalType": "uint256",
          "name": "tokenId",
          "type": "uint256"
        }
      ],
      "name": "approve",
      "outputs": [],
      "stateMutability": "nonpayable",
      "type": "function"
    },
    {
      "inputs": [
        {
          "internalType": "address",
          "name": "owner",
          "type": "address"
        }
      ],
      "name": "balanceOf",
      "outputs": [
        {
          "internalType": "uint256",
          "name": "",
          "type": "uint256"
        }
      ],
      "stateMutability": "view",
      "type": "function"
    },
    {
      "inputs": [
        {
          "internalType": "address",
          "name": "delegatee",
          "type": "address"
        }
      ],
      "name": "delegate",
      "outputs": [],
      "stateMutability": "nonpayable",
      "type": "function"
    },
    {
      "inputs": [
        {
          "internalType": "address",
          "name": "delegatee",
          "type": "address"
        },
        {
          "internalType": "uint256",
          "name": "nonce",
          "type": "uint256"
        },
        {
          "internalType": "uint256",
          "name": "expiry",
          "type": "uint256"
        },
        {
          "internalType": "uint8",
          "name": "v",
          "type": "uint8"
        },
        {
          "internalType": "bytes32",
          "name": "r",
          "type": "bytes32"
        },
        {
          "internalType": "bytes32",
          "name": "s",
          "type": "bytes32"
        }
      ],
      "name": "delegateBySig",
      "outputs": [],
      "stateMutability": "nonpayable",
      "type": "function"
    },
    {
      "inputs": [
        {
          "internalType": "address",
          "name": "account",
          "type": "address"
        }
      ],
      "name": "delegates",
      "outputs": [
        {
          "internalType": "address",
          "name": "",
          "type": "address"
        }
      ],
      "stateMutability": "view",
      "type": "function"
    },
    {
      "inputs": [
        {
          "internalType": "uint256",
          "name": "tokenId",
          "type": "uint256"
        }
      ],
      "name": "getApproved",
      "outputs": [
        {
          "internalType": "address",
          "name": "",
          "type": "address"
        }
      ],
      "stateMutability": "view",
      "type": "function"
    },
    {
      "inputs": [
        {
          "internalType": "uint256",
          "name": "blockNumber",
          "type": "uint256"
        }
      ],
      "name": "getPastTotalSupply",
      "outputs": [
        {
          "internalType": "uint256",
          "name": "",
          "type": "uint256"
        }
      ],
      "stateMutability": "view",
      "type": "function"
    },
    {
      "inputs": [
        {
          "internalType": "address",
          "name": "account",
          "type": "address"
        },
        {
          "internalType": "uint256",
          "name": "blockNumber",
          "type": "uint256"
        }
      ],
      "name": "getPastVotes",
      "outputs": [
        {
          "internalType": "uint256",
          "name": "",
          "type": "uint256"
        }
      ],
      "stateMutability": "view",
      "type": "function"
    },
    {
      "inputs": [
        {
          "internalType": "address",
          "name": "account",
          "type": "address"
        }
      ],
      "name": "getVotes",
      "outputs": [
        {
          "internalType": "uint256",
          "name": "",
          "type": "uint256"
        }
      ],
      "stateMutability": "view",
      "type": "function"
    },
    {
      "inputs": [
        {
          "internalType": "address",
          "name": "owner",
          "type": "address"
        },
        {
          "internalType": "address",
          "name": "operator",
          "type": "address"
        }
      ],
      "name": "isApprovedForAll",
      "outputs": [
        {
          "internalType": "bool",
          "name": "",
          "type": "bool"
        }
      ],
      "stateMutability": "view",
      "type": "function"
    },
    {
      "inputs": [],
      "name": "name",
      "outputs": [
        {
          "internalType": "string",
          "name": "",
          "type": "string"
        }
      ],
      "stateMutability": "view",
      "type": "function"
    },
    {
      "inputs": [
        {
          "internalType": "address",
          "name": "owner",
          "type": "address"
        }
      ],
      "name": "nonces",
      "outputs": [
        {
          "internalType": "uint256",
          "name": "",
          "type": "uint256"
        }
      ],
      "stateMutability": "view",
      "type": "function"
    },
    {
      "inputs": [],
      "name": "owner",
      "outputs": [
        {
          "internalType": "address",
          "name": "",
          "type": "address"
        }
      ],
      "stateMutability": "view",
      "type": "function"
    },
    {
      "inputs": [
        {
          "internalType": "uint256",
          "name": "tokenId",
          "type": "uint256"
        }
      ],
      "name": "ownerOf",
      "outputs": [
        {
          "internalType": "address",
          "name": "",
          "type": "address"
        }
      ],
      "stateMutability": "view",
      "type": "function"
    },
    {
      "inputs": [],
      "name": "renounceOwnership",
      "outputs": [],
      "stateMutability": "nonpayable",
      "type": "function"
    },
    {
      "inputs": [
        {
          "internalType": "address",
          "name": "to",
          "type": "address"
        }
      ],
      "name": "safeMint",
      "outputs": [],
      "stateMutability": "nonpayable",
      "type": "function"
    },
    {
      "inputs": [
        {
          "internalType": "address",
          "name": "from",
          "type": "address"
        },
        {
          "internalType": "address",
          "name": "to",
          "type": "address"
        },
        {
          "internalType": "uint256",
          "name": "tokenId",
          "type": "uint256"
        }
      ],
      "name": "safeTransferFrom",
      "outputs": [],
      "stateMutability": "nonpayable",
      "type": "function"
    },
    {
      "inputs": [
        {
          "internalType": "address",
          "name": "from",
          "type": "address"
        },
        {
          "internalType": "address",
          "name": "to",
          "type": "address"
        },
        {
          "internalType": "uint256",
          "name": "tokenId",
          "type": "uint256"
        },
        {
          "internalType": "bytes",
          "name": "_data",
          "type": "bytes"
        }
      ],
      "name": "safeTransferFrom",
      "outputs": [],
      "stateMutability": "nonpayable",
      "type": "function"
    },
    {
      "inputs": [
        {
          "internalType": "address",
          "name": "operator",
          "type": "address"
        },
        {
          "internalType": "bool",
          "name": "approved",
          "type": "bool"
        }
      ],
      "name": "setApprovalForAll",
      "outputs": [],
      "stateMutability": "nonpayable",
      "type": "function"
    },
    {
      "inputs": [
        {
          "internalType": "bytes4",
          "name": "interfaceId",
          "type": "bytes4"
        }
      ],
      "name": "supportsInterface",
      "outputs": [
        {
          "internalType": "bool",
          "name": "",
          "type": "bool"
        }
      ],
      "stateMutability": "view",
      "type": "function"
    },
    {
      "inputs": [],
      "name": "symbol",
      "outputs": [
        {
          "internalType": "string",
          "name": "",
          "type": "string"
        }
      ],
      "stateMutability": "view",
      "type": "function"
    },
    {
      "inputs": [
        {
          "internalType": "uint256",
          "name": "tokenId",
          "type": "uint256"
        }
      ],
      "name": "tokenURI",
      "outputs": [
        {
          "internalType": "string",
          "name": "",
          "type": "string"
        }
      ],
      "stateMutability": "view",
      "type": "function"
    },
    {
      "inputs": [
        {
          "internalType": "address",
          "name": "from",
          "type": "address"
        },
        {
          "internalType": "address",
          "name": "to",
          "type": "address"
        },
        {
          "internalType": "uint256",
          "name": "tokenId",
          "type": "uint256"
        }
      ],
      "name": "transferFrom",
      "outputs": [],
      "stateMutability": "nonpayable",
      "type": "function"
    },
    {
      "inputs": [
        {
          "internalType": "address",
          "name": "newOwner",
          "type": "address"
        }
      ],
      "name": "transferOwnership",
      "outputs": [],
      "stateMutability": "nonpayable",
      "type": "function"
    }
  ],
  "bytecode": "0x6101406040523480156200001257600080fd5b506040518060400160405280600a81526020016926bca7333a2a37b5b2b760b11b815250604051806040016040528060018152602001603160f81b8152506040518060400160405280600a81526020016926bca7333a2a37b5b2b760b11b815250604051806040016040528060038152602001624d544b60e81b8152508160009080519060200190620000a7929190620001cb565b508051620000bd906001906020840190620001cb565b505050620000da620000d46200017560201b60201c565b62000179565b815160208084019190912082518383012060e08290526101008190524660a0818152604080517f8b73c3c69bb8fe3d512ecc4cf759cc79239f7b179b0ffacaa9a75d522b39400f81880181905281830187905260608201869052608082019490945230818401528151808203909301835260c00190528051940193909320919290916080523060601b60c0526101205250620002ae92505050565b3390565b600680546001600160a01b038381166001600160a01b0319831681179093556040519116919082907f8be0079c531659141344cd1fd0a4f28419497f9722a3daafe3b4186f6b6457e090600090a35050565b828054620001d99062000271565b90600052602060002090601f016020900481019282620001fd576000855562000248565b82601f106200021857805160ff191683800117855562000248565b8280016001018555821562000248579182015b82811115620002485782518255916020019190600101906200022b565b50620002569291506200025a565b5090565b5b808211156200025657600081556001016200025b565b600181811c908216806200028657607f821691505b60208210811415620002a857634e487b7160e01b600052602260045260246000fd5b50919050565b60805160a05160c05160601c60e051610100516101205161260b620003016000396000611161015260006111b00152600061118b015260006110e40152600061110e01526000611138015261260b6000f3fe608060405234801561001057600080fd5b50600436106101a35760003560e01c806370a08231116100ee5780639ab24eb011610097578063c3cda52011610071578063c3cda5201461036c578063c87b56dd1461037f578063e985e9c514610392578063f2fde38b146103ce57600080fd5b80639ab24eb014610333578063a22cb46514610346578063b88d4fde1461035957600080fd5b80638da5cb5b116100c85780638da5cb5b146103075780638e539e8c1461031857806395d89b411461032b57600080fd5b806370a08231146102d9578063715018a6146102ec5780637ecebe00146102f457600080fd5b80633a46b1a811610150578063587cde1e1161012a578063587cde1e146102875780635c19a95c146102b35780636352211e146102c657600080fd5b80633a46b1a81461024e57806340d097c31461026157806342842e0e1461027457600080fd5b8063095ea7b311610181578063095ea7b31461021057806323b872dd146102255780633644e5151461023857600080fd5b806301ffc9a7146101a857806306fdde03146101d0578063081812fc146101e5575b600080fd5b6101bb6101b63660046123aa565b6103e1565b60405190151581526020015b60405180910390f35b6101d8610433565b6040516101c79190612494565b6101f86101f33660046123e4565b6104c5565b6040516001600160a01b0390911681526020016101c7565b61022361021e366004612320565b61055f565b005b6102236102333660046121cc565b610675565b6102406106fc565b6040519081526020016101c7565b61024061025c366004612320565b61070b565b61022361026f36600461217e565b610734565b6102236102823660046121cc565b6107b7565b6101f861029536600461217e565b6001600160a01b039081166000908152600760205260409020541690565b6102236102c136600461217e565b6107d2565b6101f86102d43660046123e4565b6107dd565b6102406102e736600461217e565b610868565b610223610902565b61024061030236600461217e565b610968565b6006546001600160a01b03166101f8565b6102406103263660046123e4565b610986565b6101d86109e2565b61024061034136600461217e565b6109f1565b6102236103543660046122e4565b610a12565b610223610367366004612208565b610a1d565b61022361037a36600461234a565b610aab565b6101d861038d3660046123e4565b610be1565b6101bb6103a0366004612199565b6001600160a01b03918216600090815260056020908152604080832093909416825291909152205460ff1690565b6102236103dc36600461217e565b610cd6565b60006001600160e01b031982166380ac58cd60e01b148061041257506001600160e01b03198216635b5e139f60e01b145b8061042d57506301ffc9a760e01b6001600160e01b03198316145b92915050565b60606000805461044290612516565b80601f016020809104026020016040519081016040528092919081815260200182805461046e90612516565b80156104bb5780601f10610490576101008083540402835291602001916104bb565b820191906000526020600020905b81548152906001019060200180831161049e57829003601f168201915b5050505050905090565b6000818152600260205260408120546001600160a01b03166105435760405162461bcd60e51b815260206004820152602c60248201527f4552433732313a20617070726f76656420717565727920666f72206e6f6e657860448201526b34b9ba32b73a103a37b5b2b760a11b60648201526084015b60405180910390fd5b506000908152600460205260409020546001600160a01b031690565b600061056a826107dd565b9050806001600160a01b0316836001600160a01b031614156105d85760405162461bcd60e51b815260206004820152602160248201527f4552433732313a20617070726f76616c20746f2063757272656e74206f776e656044820152603960f91b606482015260840161053a565b336001600160a01b03821614806105f457506105f481336103a0565b6106665760405162461bcd60e51b815260206004820152603860248201527f4552433732313a20617070726f76652063616c6c6572206973206e6f74206f7760448201527f6e6572206e6f7220617070726f76656420666f7220616c6c0000000000000000606482015260840161053a565b6106708383610db8565b505050565b61067f3382610e26565b6106f15760405162461bcd60e51b815260206004820152603160248201527f4552433732313a207472616e736665722063616c6c6572206973206e6f74206f60448201527f776e6572206e6f7220617070726f766564000000000000000000000000000000606482015260840161053a565b610670838383610f1d565b60006107066110d7565b905090565b6001600160a01b038216600090815260086020526040812061072d90836111fe565b9392505050565b6006546001600160a01b0316331461078e5760405162461bcd60e51b815260206004820181905260248201527f4f776e61626c653a2063616c6c6572206973206e6f7420746865206f776e6572604482015260640161053a565b6000610799600b5490565b90506107a9600b80546001019055565b6107b3828261130d565b5050565b61067083838360405180602001604052806000815250610a1d565b336107b38183611327565b6000818152600260205260408120546001600160a01b03168061042d5760405162461bcd60e51b815260206004820152602960248201527f4552433732313a206f776e657220717565727920666f72206e6f6e657869737460448201527f656e7420746f6b656e0000000000000000000000000000000000000000000000606482015260840161053a565b60006001600160a01b0382166108e65760405162461bcd60e51b815260206004820152602a60248201527f4552433732313a2062616c616e636520717565727920666f7220746865207a6560448201527f726f206164647265737300000000000000000000000000000000000000000000606482015260840161053a565b506001600160a01b031660009081526003602052604090205490565b6006546001600160a01b0316331461095c5760405162461bcd60e51b815260206004820181905260248201527f4f776e61626c653a2063616c6c6572206973206e6f7420746865206f776e6572604482015260640161053a565b6109666000611399565b565b6001600160a01b0381166000908152600a602052604081205461042d565b60004382106109d75760405162461bcd60e51b815260206004820152601a60248201527f566f7465733a20626c6f636b206e6f7420796574206d696e6564000000000000604482015260640161053a565b61042d6009836111fe565b60606001805461044290612516565b6001600160a01b038116600090815260086020526040812061042d906113eb565b6107b3338383611447565b610a273383610e26565b610a995760405162461bcd60e51b815260206004820152603160248201527f4552433732313a207472616e736665722063616c6c6572206973206e6f74206f60448201527f776e6572206e6f7220617070726f766564000000000000000000000000000000606482015260840161053a565b610aa584848484611516565b50505050565b83421115610afb5760405162461bcd60e51b815260206004820152601860248201527f566f7465733a207369676e617475726520657870697265640000000000000000604482015260640161053a565b604080517fe48329057bfd03d55e49b547132e39cffd9c1820ad7b9d4c5307691425d15adf60208201526001600160a01b038816918101919091526060810186905260808101859052600090610b7590610b6d9060a00160405160208183030381529060405280519060200120611594565b8585856115e2565b9050610b808161160a565b8614610bce5760405162461bcd60e51b815260206004820152601460248201527f566f7465733a20696e76616c6964206e6f6e6365000000000000000000000000604482015260640161053a565b610bd88188611327565b50505050505050565b6000818152600260205260409020546060906001600160a01b0316610c6e5760405162461bcd60e51b815260206004820152602f60248201527f4552433732314d657461646174613a2055524920717565727920666f72206e6f60448201527f6e6578697374656e7420746f6b656e0000000000000000000000000000000000606482015260840161053a565b6000610c8560408051602081019091526000815290565b90506000815111610ca5576040518060200160405280600081525061072d565b80610caf84611632565b604051602001610cc0929190612429565b6040516020818303038152906040529392505050565b6006546001600160a01b03163314610d305760405162461bcd60e51b815260206004820181905260248201527f4f776e61626c653a2063616c6c6572206973206e6f7420746865206f776e6572604482015260640161053a565b6001600160a01b038116610dac5760405162461bcd60e51b815260206004820152602660248201527f4f776e61626c653a206e6577206f776e657220697320746865207a65726f206160448201527f6464726573730000000000000000000000000000000000000000000000000000606482015260840161053a565b610db581611399565b50565b600081815260046020526040902080546001600160a01b0319166001600160a01b0384169081179091558190610ded826107dd565b6001600160a01b03167f8c5be1e5ebec7d5bd14f71427d1e84f3dd0314c0f7b2291e5b200ac8c7c3b92560405160405180910390a45050565b6000818152600260205260408120546001600160a01b0316610e9f5760405162461bcd60e51b815260206004820152602c60248201527f4552433732313a206f70657261746f7220717565727920666f72206e6f6e657860448201526b34b9ba32b73a103a37b5b2b760a11b606482015260840161053a565b6000610eaa836107dd565b9050806001600160a01b0316846001600160a01b03161480610ef157506001600160a01b0380821660009081526005602090815260408083209388168352929052205460ff165b80610f155750836001600160a01b0316610f0a846104c5565b6001600160a01b0316145b949350505050565b826001600160a01b0316610f30826107dd565b6001600160a01b031614610fac5760405162461bcd60e51b815260206004820152602560248201527f4552433732313a207472616e736665722066726f6d20696e636f72726563742060448201527f6f776e6572000000000000000000000000000000000000000000000000000000606482015260840161053a565b6001600160a01b03821661100e5760405162461bcd60e51b8152602060048201526024808201527f4552433732313a207472616e7366657220746f20746865207a65726f206164646044820152637265737360e01b606482015260840161053a565b611019600082610db8565b6001600160a01b03831660009081526003602052604081208054600192906110429084906124d3565b90915550506001600160a01b03821660009081526003602052604081208054600192906110709084906124a7565b909155505060008181526002602052604080822080546001600160a01b0319166001600160a01b0386811691821790925591518493918716917fddf252ad1be2c89b69c2b068fc378daa952ba7f163c4a11628f55a4df523b3ef91a4610670838383611748565b6000306001600160a01b037f00000000000000000000000000000000000000000000000000000000000000001614801561113057507f000000000000000000000000000000000000000000000000000000000000000046145b1561115a57507f000000000000000000000000000000000000000000000000000000000000000090565b50604080517f00000000000000000000000000000000000000000000000000000000000000006020808301919091527f0000000000000000000000000000000000000000000000000000000000000000828401527f000000000000000000000000000000000000000000000000000000000000000060608301524660808301523060a0808401919091528351808403909101815260c0909201909252805191012090565b600043821061124f5760405162461bcd60e51b815260206004820181905260248201527f436865636b706f696e74733a20626c6f636b206e6f7420796574206d696e6564604482015260640161053a565b825460005b818110156112b45760006112688284611753565b905084866000018281548110611280576112806125bc565b60009182526020909120015463ffffffff1611156112a0578092506112ae565b6112ab8160016124a7565b91505b50611254565b81156112f857846112c66001846124d3565b815481106112d6576112d66125bc565b60009182526020909120015464010000000090046001600160e01b03166112fb565b60005b6001600160e01b031695945050505050565b6107b382826040518060200160405280600081525061176e565b6001600160a01b0382811660008181526007602052604080822080548686166001600160a01b0319821681179092559151919094169392849290917f3134e8a2e6d97e929a7e54011ea5485d7d196dd5f0ba4d4ef95803e8e3fc257f9190a46106708183611394866117ec565b6117f7565b600680546001600160a01b038381166001600160a01b0319831681179093556040519116919082907f8be0079c531659141344cd1fd0a4f28419497f9722a3daafe3b4186f6b6457e090600090a35050565b8054600090801561143457826114026001836124d3565b81548110611412576114126125bc565b60009182526020909120015464010000000090046001600160e01b0316611437565b60005b6001600160e01b03169392505050565b816001600160a01b0316836001600160a01b031614156114a95760405162461bcd60e51b815260206004820152601960248201527f4552433732313a20617070726f766520746f2063616c6c657200000000000000604482015260640161053a565b6001600160a01b03838116600081815260056020908152604080832094871680845294825291829020805460ff191686151590811790915591519182527f17307eab39ab6107e8899845ad3d59bd9653f200f220920489ca2b5937696c31910160405180910390a3505050565b611521848484610f1d565b61152d84848484611934565b610aa55760405162461bcd60e51b815260206004820152603260248201527f4552433732313a207472616e7366657220746f206e6f6e20455243373231526560448201527131b2b4bb32b91034b6b83632b6b2b73a32b960711b606482015260840161053a565b600061042d6115a16110d7565b8360405161190160f01b6020820152602281018390526042810182905260009060620160405160208183030381529060405280519060200120905092915050565b60008060006115f387878787611a89565b9150915061160081611b76565b5095945050505050565b6001600160a01b0381166000908152600a602052604090208054600181018255905b50919050565b6060816116565750506040805180820190915260018152600360fc1b602082015290565b8160005b8115611680578061166a8161254b565b91506116799050600a836124bf565b915061165a565b60008167ffffffffffffffff81111561169b5761169b6125d2565b6040519080825280601f01601f1916602001820160405280156116c5576020820181803683370190505b5090505b8415610f15576116da6001836124d3565b91506116e7600a86612566565b6116f29060306124a7565b60f81b818381518110611707576117076125bc565b60200101907effffffffffffffffffffffffffffffffffffffffffffffffffffffffffffff1916908160001a905350611741600a866124bf565b94506116c9565b610670838383611d31565b600061176260028484186124bf565b61072d908484166124a7565b6117788383611d3d565b6117856000848484611934565b6106705760405162461bcd60e51b815260206004820152603260248201527f4552433732313a207472616e7366657220746f206e6f6e20455243373231526560448201527131b2b4bb32b91034b6b83632b6b2b73a32b960711b606482015260840161053a565b600061042d82610868565b816001600160a01b0316836001600160a01b0316141580156118195750600081115b15610670576001600160a01b038316156118a7576001600160a01b0383166000908152600860205260408120819061185490611e8785611e93565b91509150846001600160a01b03167fdec2bacdd2f05b59de34da9b523dff8be42e5e38e818c82fdb0bae774387a724838360405161189c929190918252602082015260400190565b60405180910390a250505b6001600160a01b03821615610670576001600160a01b038216600090815260086020526040812081906118dd90611ec185611e93565b91509150836001600160a01b03167fdec2bacdd2f05b59de34da9b523dff8be42e5e38e818c82fdb0bae774387a7248383604051611925929190918252602082015260400190565b60405180910390a25050505050565b60006001600160a01b0384163b15611a8157604051630a85bd0160e11b81526001600160a01b0385169063150b7a0290611978903390899088908890600401612458565b602060405180830381600087803b15801561199257600080fd5b505af19250505080156119c2575060408051601f3d908101601f191682019092526119bf918101906123c7565b60015b611a67573d8080156119f0576040519150601f19603f3d011682016040523d82523d6000602084013e6119f5565b606091505b508051611a5f5760405162461bcd60e51b815260206004820152603260248201527f4552433732313a207472616e7366657220746f206e6f6e20455243373231526560448201527131b2b4bb32b91034b6b83632b6b2b73a32b960711b606482015260840161053a565b805181602001fd5b6001600160e01b031916630a85bd0160e11b149050610f15565b506001610f15565b6000807f7fffffffffffffffffffffffffffffff5d576e7357a4501ddfe92f46681b20a0831115611ac05750600090506003611b6d565b8460ff16601b14158015611ad857508460ff16601c14155b15611ae95750600090506004611b6d565b6040805160008082526020820180845289905260ff881692820192909252606081018690526080810185905260019060a0016020604051602081039080840390855afa158015611b3d573d6000803e3d6000fd5b5050604051601f1901519150506001600160a01b038116611b6657600060019250925050611b6d565b9150600090505b94509492505050565b6000816004811115611b8a57611b8a6125a6565b1415611b935750565b6001816004811115611ba757611ba76125a6565b1415611bf55760405162461bcd60e51b815260206004820152601860248201527f45434453413a20696e76616c6964207369676e61747572650000000000000000604482015260640161053a565b6002816004811115611c0957611c096125a6565b1415611c575760405162461bcd60e51b815260206004820152601f60248201527f45434453413a20696e76616c6964207369676e6174757265206c656e67746800604482015260640161053a565b6003816004811115611c6b57611c6b6125a6565b1415611cc45760405162461bcd60e51b815260206004820152602260248201527f45434453413a20696e76616c6964207369676e6174757265202773272076616c604482015261756560f01b606482015260840161053a565b6004816004811115611cd857611cd86125a6565b1415610db55760405162461bcd60e51b815260206004820152602260248201527f45434453413a20696e76616c6964207369676e6174757265202776272076616c604482015261756560f01b606482015260840161053a565b61067083836001611ecd565b6001600160a01b038216611d935760405162461bcd60e51b815260206004820181905260248201527f4552433732313a206d696e7420746f20746865207a65726f2061646472657373604482015260640161053a565b6000818152600260205260409020546001600160a01b031615611df85760405162461bcd60e51b815260206004820152601c60248201527f4552433732313a20746f6b656e20616c7265616479206d696e74656400000000604482015260640161053a565b6001600160a01b0382166000908152600360205260408120805460019290611e219084906124a7565b909155505060008181526002602052604080822080546001600160a01b0319166001600160a01b03861690811790915590518392907fddf252ad1be2c89b69c2b068fc378daa952ba7f163c4a11628f55a4df523b3ef908290a46107b360008383611748565b600061072d82846124d3565b600080611eb585611eb0611ea6886113eb565b868863ffffffff16565b611f3d565b91509150935093915050565b600061072d82846124a7565b6001600160a01b038316611eec57611ee96009611ec183611e93565b50505b6001600160a01b038216611f0b57611f086009611e8783611e93565b50505b6001600160a01b03838116600090815260076020526040808220548584168352912054610670929182169116836117f7565b8154600090819081611f4e866113eb565b9050600082118015611f8c57504386611f686001856124d3565b81548110611f7857611f786125bc565b60009182526020909120015463ffffffff16145b15611fec57611f9a85612063565b86611fa66001856124d3565b81548110611fb657611fb66125bc565b9060005260206000200160000160046101000a8154816001600160e01b0302191690836001600160e01b0316021790555061205a565b856000016040518060400160405280612004436120e6565b63ffffffff16815260200161201888612063565b6001600160e01b0390811690915282546001810184556000938452602093849020835194909301519091166401000000000263ffffffff909316929092179101555b95939450505050565b60006001600160e01b038211156120e25760405162461bcd60e51b815260206004820152602760248201527f53616665436173743a2076616c756520646f65736e27742066697420696e203260448201527f3234206269747300000000000000000000000000000000000000000000000000606482015260840161053a565b5090565b600063ffffffff8211156120e25760405162461bcd60e51b815260206004820152602660248201527f53616665436173743a2076616c756520646f65736e27742066697420696e203360448201527f3220626974730000000000000000000000000000000000000000000000000000606482015260840161053a565b80356001600160a01b038116811461217957600080fd5b919050565b60006020828403121561219057600080fd5b61072d82612162565b600080604083850312156121ac57600080fd5b6121b583612162565b91506121c360208401612162565b90509250929050565b6000806000606084860312156121e157600080fd5b6121ea84612162565b92506121f860208501612162565b9150604084013590509250925092565b6000806000806080858703121561221e57600080fd5b61222785612162565b935061223560208601612162565b925060408501359150606085013567ffffffffffffffff8082111561225957600080fd5b818701915087601f83011261226d57600080fd5b81358181111561227f5761227f6125d2565b604051601f8201601f19908116603f011681019083821181831017156122a7576122a76125d2565b816040528281528a60208487010111156122c057600080fd5b82602086016020830137600060208483010152809550505050505092959194509250565b600080604083850312156122f757600080fd5b61230083612162565b91506020830135801515811461231557600080fd5b809150509250929050565b6000806040838503121561233357600080fd5b61233c83612162565b946020939093013593505050565b60008060008060008060c0878903121561236357600080fd5b61236c87612162565b95506020870135945060408701359350606087013560ff8116811461239057600080fd5b9598949750929560808101359460a0909101359350915050565b6000602082840312156123bc57600080fd5b813561072d816125e8565b6000602082840312156123d957600080fd5b815161072d816125e8565b6000602082840312156123f657600080fd5b5035919050565b600081518084526124158160208601602086016124ea565b601f01601f19169290920160200192915050565b6000835161243b8184602088016124ea565b83519083019061244f8183602088016124ea565b01949350505050565b60006001600160a01b0380871683528086166020840152508360408301526080606083015261248a60808301846123fd565b9695505050505050565b60208152600061072d60208301846123fd565b600082198211156124ba576124ba61257a565b500190565b6000826124ce576124ce612590565b500490565b6000828210156124e5576124e561257a565b500390565b60005b838110156125055781810151838201526020016124ed565b83811115610aa55750506000910152565b600181811c9082168061252a57607f821691505b6020821081141561162c57634e487b7160e01b600052602260045260246000fd5b600060001982141561255f5761255f61257a565b5060010190565b60008261257557612575612590565b500690565b634e487b7160e01b600052601160045260246000fd5b634e487b7160e01b600052601260045260246000fd5b634e487b7160e01b600052602160045260246000fd5b634e487b7160e01b600052603260045260246000fd5b634e487b7160e01b600052604160045260246000fd5b6001600160e01b031981168114610db557600080fdfea164736f6c6343000807000a",
  "linkReferences": {},
  "deployedLinkReferences": {}
}