{
  "_format": "hh-sol-artifact-1",
  "contractName": "DominionDAO",
  "sourceName": "contracts/DominionDAO.sol",
  "abi": [
    {
      "anonymous": false,
      "inputs": [
        {
          "indexed": true,
          "internalType": "address",
          "name": "initiator",
          "type": "address"
        },
        {
          "indexed": false,
          "internalType": "bytes32",
          "name": "role",
          "type": "bytes32"
        },
        {
          "indexed": false,
          "internalType": "string",
          "name": "message",
          "type": "string"
        },
        {
          "indexed": true,
          "internalType": "address",
          "name": "beneficiary",
          "type": "address"
        },
        {
          "indexed": false,
          "internalType": "uint256",
          "name": "amount",
          "type": "uint256"
        }
      ],
      "name": "Action",
      "type": "event"
    },
    {
      "anonymous": false,
      "inputs": [
        {
          "indexed": true,
          "internalType": "bytes32",
          "name": "role",
          "type": "bytes32"
        },
        {
          "indexed": true,
          "internalType": "bytes32",
          "name": "previousAdminRole",
          "type": "bytes32"
        },
        {
          "indexed": true,
          "internalType": "bytes32",
          "name": "newAdminRole",
          "type": "bytes32"
        }
      ],
      "name": "RoleAdminChanged",
      "type": "event"
    },
    {
      "anonymous": false,
      "inputs": [
        {
          "indexed": true,
          "internalType": "bytes32",
          "name": "role",
          "type": "bytes32"
        },
        {
          "indexed": true,
          "internalType": "address",
          "name": "account",
          "type": "address"
        },
        {
          "indexed": true,
          "internalType": "address",
          "name": "sender",
          "type": "address"
        }
      ],
      "name": "RoleGranted",
      "type": "event"
    },
    {
      "anonymous": false,
      "inputs": [
        {
          "indexed": true,
          "internalType": "bytes32",
          "name": "role",
          "type": "bytes32"
        },
        {
          "indexed": true,
          "internalType": "address",
          "name": "account",
          "type": "address"
        },
        {
          "indexed": true,
          "internalType": "address",
          "name": "sender",
          "type": "address"
        }
      ],
      "name": "RoleRevoked",
      "type": "event"
    },
    {
      "inputs": [],
      "name": "DEFAULT_ADMIN_ROLE",
      "outputs": [
        {
          "internalType": "bytes32",
          "name": "",
          "type": "bytes32"
        }
      ],
      "stateMutability": "view",
      "type": "function"
    },
    {
      "inputs": [],
      "name": "contribute",
      "outputs": [
        {
          "internalType": "uint256",
          "name": "",
          "type": "uint256"
        }
      ],
      "stateMutability": "payable",
      "type": "function"
    },
    {
      "inputs": [
        {
          "internalType": "string",
          "name": "title",
          "type": "string"
        },
        {
          "internalType": "string",
          "name": "description",
          "type": "string"
        },
        {
          "internalType": "address",
          "name": "beneficiary",
          "type": "address"
        },
        {
          "internalType": "uint256",
          "name": "amount",
          "type": "uint256"
        }
      ],
      "name": "createProposal",
      "outputs": [
        {
          "components": [
            {
              "internalType": "uint256",
              "name": "id",
              "type": "uint256"
            },
            {
              "internalType": "uint256",
              "name": "amount",
              "type": "uint256"
            },
            {
              "internalType": "uint256",
              "name": "duration",
              "type": "uint256"
            },
            {
              "internalType": "uint256",
              "name": "upvotes",
              "type": "uint256"
            },
            {
              "internalType": "uint256",
              "name": "downvotes",
              "type": "uint256"
            },
            {
              "internalType": "string",
              "name": "title",
              "type": "string"
            },
            {
              "internalType": "string",
              "name": "description",
              "type": "string"
            },
            {
              "internalType": "bool",
              "name": "passed",
              "type": "bool"
            },
            {
              "internalType": "bool",
              "name": "paid",
              "type": "bool"
            },
            {
              "internalType": "address payable",
              "name": "beneficiary",
              "type": "address"
            },
            {
              "internalType": "address",
              "name": "proposer",
              "type": "address"
            },
            {
              "internalType": "address",
              "name": "executor",
              "type": "address"
            }
          ],
          "internalType": "struct DominionDAO.ProposalStruct",
          "name": "",
          "type": "tuple"
        }
      ],
      "stateMutability": "nonpayable",
      "type": "function"
    },
    {
      "inputs": [],
      "name": "daoBalance",
      "outputs": [
        {
          "internalType": "uint256",
          "name": "",
          "type": "uint256"
        }
      ],
      "stateMutability": "view",
      "type": "function"
    },
    {
      "inputs": [],
      "name": "getBalance",
      "outputs": [
        {
          "internalType": "uint256",
          "name": "",
          "type": "uint256"
        }
      ],
      "stateMutability": "view",
      "type": "function"
    },
    {
      "inputs": [],
      "name": "getContributorBalance",
      "outputs": [
        {
          "internalType": "uint256",
          "name": "",
          "type": "uint256"
        }
      ],
      "stateMutability": "view",
      "type": "function"
    },
    {
      "inputs": [
        {
          "internalType": "uint256",
          "name": "proposalId",
          "type": "uint256"
        }
      ],
      "name": "getProposal",
      "outputs": [
        {
          "components": [
            {
              "internalType": "uint256",
              "name": "id",
              "type": "uint256"
            },
            {
              "internalType": "uint256",
              "name": "amount",
              "type": "uint256"
            },
            {
              "internalType": "uint256",
              "name": "duration",
              "type": "uint256"
            },
            {
              "internalType": "uint256",
              "name": "upvotes",
              "type": "uint256"
            },
            {
              "internalType": "uint256",
              "name": "downvotes",
              "type": "uint256"
            },
            {
              "internalType": "string",
              "name": "title",
              "type": "string"
            },
            {
              "internalType": "string",
              "name": "description",
              "type": "string"
            },
            {
              "internalType": "bool",
              "name": "passed",
              "type": "bool"
            },
            {
              "internalType": "bool",
              "name": "paid",
              "type": "bool"
            },
            {
              "internalType": "address payable",
              "name": "beneficiary",
              "type": "address"
            },
            {
              "internalType": "address",
              "name": "proposer",
              "type": "address"
            },
            {
              "internalType": "address",
              "name": "executor",
              "type": "address"
            }
          ],
          "internalType": "struct DominionDAO.ProposalStruct",
          "name": "",
          "type": "tuple"
        }
      ],
      "stateMutability": "view",
      "type": "function"
    },
    {
      "inputs": [],
      "name": "getProposals",
      "outputs": [
        {
          "components": [
            {
              "internalType": "uint256",
              "name": "id",
              "type": "uint256"
            },
            {
              "internalType": "uint256",
              "name": "amount",
              "type": "uint256"
            },
            {
              "internalType": "uint256",
              "name": "duration",
              "type": "uint256"
            },
            {
              "internalType": "uint256",
              "name": "upvotes",
              "type": "uint256"
            },
            {
              "internalType": "uint256",
              "name": "downvotes",
              "type": "uint256"
            },
            {
              "internalType": "string",
              "name": "title",
              "type": "string"
            },
            {
              "internalType": "string",
              "name": "description",
              "type": "string"
            },
            {
              "internalType": "bool",
              "name": "passed",
              "type": "bool"
            },
            {
              "internalType": "bool",
              "name": "paid",
              "type": "bool"
            },
            {
              "internalType": "address payable",
              "name": "beneficiary",
              "type": "address"
            },
            {
              "internalType": "address",
              "name": "proposer",
              "type": "address"
            },
            {
              "internalType": "address",
              "name": "executor",
              "type": "address"
            }
          ],
          "internalType": "struct DominionDAO.ProposalStruct[]",
          "name": "props",
          "type": "tuple[]"
        }
      ],
      "stateMutability": "view",
      "type": "function"
    },
    {
      "inputs": [
        {
          "internalType": "bytes32",
          "name": "role",
          "type": "bytes32"
        }
      ],
      "name": "getRoleAdmin",
      "outputs": [
        {
          "internalType": "bytes32",
          "name": "",
          "type": "bytes32"
        }
      ],
      "stateMutability": "view",
      "type": "function"
    },
    {
      "inputs": [],
      "name": "getStakeholderBalance",
      "outputs": [
        {
          "internalType": "uint256",
          "name": "",
          "type": "uint256"
        }
      ],
      "stateMutability": "view",
      "type": "function"
    },
    {
      "inputs": [],
      "name": "getStakeholderVotes",
      "outputs": [
        {
          "internalType": "uint256[]",
          "name": "",
          "type": "uint256[]"
        }
      ],
      "stateMutability": "view",
      "type": "function"
    },
    {
      "inputs": [
        {
          "internalType": "uint256",
          "name": "proposalId",
          "type": "uint256"
        }
      ],
      "name": "getVotesOf",
      "outputs": [
        {
          "components": [
            {
              "internalType": "address",
              "name": "voter",
              "type": "address"
            },
            {
              "internalType": "uint256",
              "name": "timestamp",
              "type": "uint256"
            },
            {
              "internalType": "bool",
              "name": "choosen",
              "type": "bool"
            }
          ],
          "internalType": "struct DominionDAO.VotedStruct[]",
          "name": "",
          "type": "tuple[]"
        }
      ],
      "stateMutability": "view",
      "type": "function"
    },
    {
      "inputs": [
        {
          "internalType": "bytes32",
          "name": "role",
          "type": "bytes32"
        },
        {
          "internalType": "address",
          "name": "account",
          "type": "address"
        }
      ],
      "name": "grantRole",
      "outputs": [],
      "stateMutability": "nonpayable",
      "type": "function"
    },
    {
      "inputs": [
        {
          "internalType": "bytes32",
          "name": "role",
          "type": "bytes32"
        },
        {
          "internalType": "address",
          "name": "account",
          "type": "address"
        }
      ],
      "name": "hasRole",
      "outputs": [
        {
          "internalType": "bool",
          "name": "",
          "type": "bool"
        }
      ],
      "stateMutability": "view",
      "type": "function"
    },
    {
      "inputs": [],
      "name": "isContributor",
      "outputs": [
        {
          "internalType": "bool",
          "name": "",
          "type": "bool"
        }
      ],
      "stateMutability": "view",
      "type": "function"
    },
    {
      "inputs": [],
      "name": "isStakeholder",
      "outputs": [
        {
          "internalType": "bool",
          "name": "",
          "type": "bool"
        }
      ],
      "stateMutability": "view",
      "type": "function"
    },
    {
      "inputs": [
        {
          "internalType": "uint256",
          "name": "proposalId",
          "type": "uint256"
        }
      ],
      "name": "payBeneficiary",
      "outputs": [
        {
          "internalType": "uint256",
          "name": "",
          "type": "uint256"
        }
      ],
      "stateMutability": "nonpayable",
      "type": "function"
    },
    {
      "inputs": [
        {
          "internalType": "uint256",
          "name": "proposalId",
          "type": "uint256"
        },
        {
          "internalType": "bool",
          "name": "choosen",
          "type": "bool"
        }
      ],
      "name": "performVote",
      "outputs": [
        {
          "components": [
            {
              "internalType": "address",
              "name": "voter",
              "type": "address"
            },
            {
              "internalType": "uint256",
              "name": "timestamp",
              "type": "uint256"
            },
            {
              "internalType": "bool",
              "name": "choosen",
              "type": "bool"
            }
          ],
          "internalType": "struct DominionDAO.VotedStruct",
          "name": "",
          "type": "tuple"
        }
      ],
      "stateMutability": "nonpayable",
      "type": "function"
    },
    {
      "inputs": [
        {
          "internalType": "bytes32",
          "name": "role",
          "type": "bytes32"
        },
        {
          "internalType": "address",
          "name": "account",
          "type": "address"
        }
      ],
      "name": "renounceRole",
      "outputs": [],
      "stateMutability": "nonpayable",
      "type": "function"
    },
    {
      "inputs": [
        {
          "internalType": "bytes32",
          "name": "role",
          "type": "bytes32"
        },
        {
          "internalType": "address",
          "name": "account",
          "type": "address"
        }
      ],
      "name": "revokeRole",
      "outputs": [],
      "stateMutability": "nonpayable",
      "type": "function"
    },
    {
      "inputs": [
        {
          "internalType": "bytes4",
          "name": "interfaceId",
          "type": "bytes4"
        }
      ],
      "name": "supportsInterface",
      "outputs": [
        {
          "internalType": "bool",
          "name": "",
          "type": "bool"
        }
      ],
      "stateMutability": "view",
      "type": "function"
    }
  ],
  "bytecode": "0x6101006040527fa0bb1af1c90aa52ed052b92714ff0087008cc720049bf1af77cca2600b31e80c6080527ff4bb84e1768dd286358a736d195a0b228621173f655a73b89bf8b191ed0ba07d60a052670de0b6b3a764000060c05261127560e71b60e05234801561006e57600080fd5b50600160005560805160a05160c05160e05160e01c6124bc6101046000396000610dda015260006116720152600081816104cd0152818161071d01528181610c3f01528181610cd00152818161109e015281816111aa0152818161130701528181611613015281816116ce01526117dd01526000818161089e01528181610e10015281816116f8015261174c01526124bc6000f3fe60806040526004361061016a5760003560e01c80637cdc2eb7116100cb578063bd9728161161007f578063d547741f11610059578063d547741f14610411578063d6cc801614610431578063d7bb99ba1461045557600080fd5b8063bd972816146103b7578063c02146ac146103cd578063c7f758a8146103f157600080fd5b8063a217fddf116100b0578063a217fddf14610353578063a22f1db714610368578063b31f111c1461038a57600080fd5b80637cdc2eb7146102e057806391d148541461030d57600080fd5b806336568abe1161012257806362564c481161010757806362564c481461027c57806369a136dc1461029e5780636a80d84d146102cb57600080fd5b806336568abe146102475780633cdb48c21461026757600080fd5b806312065fe01161015357806312065fe0146101d2578063248a9ca3146101f45780632f2ff15d1461022557600080fd5b806301ffc9a71461016f578063119c37c8146101a4575b600080fd5b34801561017b57600080fd5b5061018f61018a366004611f84565b61045d565b60405190151581526020015b60405180910390f35b3480156101b057600080fd5b506101c46101bf366004611f3f565b610494565b60405190815260200161019b565b3480156101de57600080fd5b50336000908152600760205260409020546101c4565b34801561020057600080fd5b506101c461020f366004611f3f565b6000908152600160208190526040909120015490565b34801561023157600080fd5b50610245610240366004611f58565b6107ca565b005b34801561025357600080fd5b50610245610262366004611f58565b6107f5565b34801561027357600080fd5b506101c4610881565b34801561028857600080fd5b50610291610911565b60405161019b91906121d9565b3480156102aa57600080fd5b506102be6102b9366004611f3f565b610b6c565b60405161019b919061223b565b3480156102d757600080fd5b506101c4610c06565b3480156102ec57600080fd5b506103006102fb366004611fae565b610cad565b60405161019b91906122f3565b34801561031957600080fd5b5061018f610328366004611f58565b60009182526001602090815260408084206001600160a01b0393909316845291905290205460ff1690565b34801561035f57600080fd5b506101c4600081565b34801561037457600080fd5b5061037d611065565b60405161019b91906122a8565b34801561039657600080fd5b506103aa6103a5366004612037565b61115b565b60405161019b9190612306565b3480156103c357600080fd5b506101c460035481565b3480156103d957600080fd5b5033600090815260086020526040902054151561018f565b3480156103fd57600080fd5b5061030061040c366004611f3f565b6113bf565b34801561041d57600080fd5b5061024561042c366004611f58565b611590565b34801561043d57600080fd5b5033600090815260076020526040902054151561018f565b6101c46115b6565b60006001600160e01b03198216637965db0b60e01b148061048e57506301ffc9a760e01b6001600160e01b03198316145b92915050565b604080518082018252601f81527f556e617574686f72697a65643a205374616b65686f6c64657273206f6e6c79006020808301919091527f00000000000000000000000000000000000000000000000000000000000000006000908152600182528381203382529091529182205460ff16819061052d5760405162461bcd60e51b815260040161052491906122e0565b60405180910390fd5b50600260005414156105815760405162461bcd60e51b815260206004820152601f60248201527f5265656e7472616e637947756172643a207265656e7472616e742063616c6c006044820152606401610524565b60026000908155838152600460205260409020600181015460035410156105ea5760405162461bcd60e51b815260206004820152601160248201527f496e73756666696369656e742066756e640000000000000000000000000000006044820152606401610524565b6007810154610100900460ff16156106445760405162461bcd60e51b815260206004820152601360248201527f5061796d656e742073656e74206265666f7265000000000000000000000000006044820152606401610524565b806004015481600301541161069b5760405162461bcd60e51b815260206004820152601260248201527f496e73756666696369656e7420766f74657300000000000000000000000000006044820152606401610524565b600781015460018201546106be916201000090046001600160a01b03169061186f565b5060078101805461ff00191661010017905560098101805473ffffffffffffffffffffffffffffffffffffffff191633179055600181015460038054600090610708908490612369565b909155505060078101546001820154604080517f000000000000000000000000000000000000000000000000000000000000000081526060602082018190526012908201527f5041594d454e54205452414e5346455245440000000000000000000000000000608082015290810191909152620100009091046001600160a01b03169033907fa596782d699d74613fcbf59d33e720baabd313d6be9c95e2268f305430305eb79060a00160405180910390a35050600354600160005592915050565b600082815260016020819052604090912001546107e68161191d565b6107f0838361192a565b505050565b6001600160a01b03811633146108735760405162461bcd60e51b815260206004820152602f60248201527f416363657373436f6e74726f6c3a2063616e206f6e6c792072656e6f756e636560448201527f20726f6c657320666f722073656c6600000000000000000000000000000000006064820152608401610524565b61087d82826119b1565b5050565b6000604051806060016040528060218152602001612460602191397f0000000000000000000000000000000000000000000000000000000000000000600090815260016020908152604080832033845290915290205460ff1681906108f95760405162461bcd60e51b815260040161052491906122e0565b503360009081526007602052604090205491505b5090565b606060025467ffffffffffffffff81111561092e5761092e612449565b60405190808252806020026020018201604052801561096757816020015b610954611dca565b81526020019060019003908161094c5790505b50905060005b60025481101561090d57600460008281526020019081526020016000206040518061018001604052908160008201548152602001600182015481526020016002820154815260200160038201548152602001600482015481526020016005820180546109d8906123c7565b80601f0160208091040260200160405190810160405280929190818152602001828054610a04906123c7565b8015610a515780601f10610a2657610100808354040283529160200191610a51565b820191906000526020600020905b815481529060010190602001808311610a3457829003601f168201915b50505050508152602001600682018054610a6a906123c7565b80601f0160208091040260200160405190810160405280929190818152602001828054610a96906123c7565b8015610ae35780601f10610ab857610100808354040283529160200191610ae3565b820191906000526020600020905b815481529060010190602001808311610ac657829003601f168201915b5050509183525050600782015460ff80821615156020840152610100820416151560408301526001600160a01b03620100009091048116606083015260088301548116608083015260099092015490911660a0909101528251839083908110610b4e57610b4e612433565b60200260200101819052508080610b6490612402565b91505061096d565b606060066000838152602001908152602001600020805480602002602001604051908101604052809291908181526020016000905b82821015610bfb576000848152602090819020604080516060810182526003860290920180546001600160a01b031683526001808201548486015260029091015460ff161515918301919091529083529092019101610ba1565b505050509050919050565b604080518082018252601f81527f556e617574686f72697a65643a206e6f742061207374616b65686f6c646572006020808301919091527f00000000000000000000000000000000000000000000000000000000000000006000908152600182528381203382529091529182205460ff168190610c965760405162461bcd60e51b815260040161052491906122e0565b503360009081526008602052604090205491505090565b610cb5611dca565b6040518060600160405280602f8152602001612481602f91397f0000000000000000000000000000000000000000000000000000000000000000600090815260016020908152604080832033845290915290205460ff168190610d2b5760405162461bcd60e51b815260040161052491906122e0565b506002805460009182610d3d83612402565b90915550600081815260046020526040902081815560088101805473ffffffffffffffffffffffffffffffffffffffff191633179055909150610d84600582018b8b611e4a565b50610d93600682018989611e4a565b506007810180547fffffffffffffffffffff0000000000000000000000000000000000000000ffff16620100006001600160a01b0389160217905560018101859055610e057f000000000000000000000000000000000000000000000000000000000000000063ffffffff1642612332565b6002820155604080517f00000000000000000000000000000000000000000000000000000000000000008152606060208201819052600f908201527f50524f504f53414c20524149534544000000000000000000000000000000000060808201529081018690526001600160a01b0387169033907fa596782d699d74613fcbf59d33e720baabd313d6be9c95e2268f305430305eb79060a00160405180910390a380604051806101800160405290816000820154815260200160018201548152602001600282015481526020016003820154815260200160048201548152602001600582018054610ef5906123c7565b80601f0160208091040260200160405190810160405280929190818152602001828054610f21906123c7565b8015610f6e5780601f10610f4357610100808354040283529160200191610f6e565b820191906000526020600020905b815481529060010190602001808311610f5157829003601f168201915b50505050508152602001600682018054610f87906123c7565b80601f0160208091040260200160405190810160405280929190818152602001828054610fb3906123c7565b80156110005780601f10610fd557610100808354040283529160200191611000565b820191906000526020600020905b815481529060010190602001808311610fe357829003601f168201915b5050509183525050600782015460ff80821615156020840152610100820416151560408301526201000090046001600160a01b03908116606083015260088301548116608083015260099092015490911660a0909101529a9950505050505050505050565b604080518082018252601f81527f556e617574686f72697a65643a206e6f742061207374616b65686f6c646572006020808301919091527f000000000000000000000000000000000000000000000000000000000000000060009081526001825283812033825290915291909120546060919060ff1681906110fa5760405162461bcd60e51b815260040161052491906122e0565b50336000908152600560209081526040918290208054835181840281018401909452808452909183018282801561115057602002820191906000526020600020905b81548152602001906001019080831161113c575b505050505091505090565b604080516060810182526000808252602080830182905282840182905283518085018552601f81527f556e617574686f72697a65643a205374616b65686f6c64657273206f6e6c7900818301527f00000000000000000000000000000000000000000000000000000000000000008352600182528483203384529091529290205490919060ff1681906112015760405162461bcd60e51b815260040161052491906122e0565b50600084815260046020526040902061121981611a34565b831561123b5760038101805490600061123183612402565b9190505550611253565b60048101805490600061124d83612402565b91905055505b336000818152600560209081526040808320855481546001808201845592865284862001558554845260068352818420825160608082018552878252428287019081528c1515838701908152845480870186559489529787902092516003909402909201805473ffffffffffffffffffffffffffffffffffffffff19166001600160a01b0394851617815591518285015595516002909101805460ff191691151591909117905560078701549187015483517f00000000000000000000000000000000000000000000000000000000000000008152948501869052600d958501959095527f50524f504f53414c20564f5445000000000000000000000000000000000000006080850152918301939093526201000090920490911691907fa596782d699d74613fcbf59d33e720baabd313d6be9c95e2268f305430305eb79060a00160405180910390a35050604080516060810182523381524260208201529215159083015250919050565b6113c7611dca565b60046000838152602001908152602001600020604051806101800160405290816000820154815260200160018201548152602001600282015481526020016003820154815260200160048201548152602001600582018054611428906123c7565b80601f0160208091040260200160405190810160405280929190818152602001828054611454906123c7565b80156114a15780601f10611476576101008083540402835291602001916114a1565b820191906000526020600020905b81548152906001019060200180831161148457829003601f168201915b505050505081526020016006820180546114ba906123c7565b80601f01602080910402602001604051908101604052809291908181526020018280546114e6906123c7565b80156115335780601f1061150857610100808354040283529160200191611533565b820191906000526020600020905b81548152906001019060200180831161151657829003601f168201915b5050509183525050600782015460ff80821615156020840152610100820416151560408301526001600160a01b03620100009091048116606083015260088301548116608083015260099092015490911660a09091015292915050565b600082815260016020819052604090912001546115ac8161191d565b6107f083836119b1565b60008034116116115760405162461bcd60e51b815260206004820152602160248201527f436f6e747269627574696e67207a65726f206973206e6f7420616c6c6f7765646044820152601760f91b6064820152608401610524565b7f0000000000000000000000000000000000000000000000000000000000000000600090815260016020908152604080832033845290915290205460ff16611777573360009081526007602052604081205461166e903490612332565b90507f00000000000000000000000000000000000000000000000000000000000000008110611722573360009081526008602090815260408083208490556007909152812080543492906116c3908490612332565b909155506116f390507f000000000000000000000000000000000000000000000000000000000000000033611b90565b61171d7f000000000000000000000000000000000000000000000000000000000000000033611b90565b611771565b3360009081526007602052604081208054349290611741908490612332565b9091555061177190507f000000000000000000000000000000000000000000000000000000000000000033611b90565b506117c0565b3360009081526007602052604081208054349290611796908490612332565b909155505033600090815260086020526040812080543492906117ba908490612332565b90915550505b34600360008282546117d29190612332565b9091555050604080517f000000000000000000000000000000000000000000000000000000000000000081526060602082018190526015908201527f434f4e545249425554494f4e2052454345495645440000000000000000000000608082015234818301529051309133917fa596782d699d74613fcbf59d33e720baabd313d6be9c95e2268f305430305eb79181900360a00190a35060035490565b600080836001600160a01b03168360405160006040518083038185875af1925050503d80600081146118bd576040519150601f19603f3d011682016040523d82523d6000602084013e6118c2565b606091505b50509050806119135760405162461bcd60e51b815260206004820152600e60248201527f5061796d656e74206661696c65640000000000000000000000000000000000006044820152606401610524565b5060019392505050565b6119278133611b9a565b50565b60008281526001602090815260408083206001600160a01b038516845290915290205460ff1661087d5760008281526001602081815260408084206001600160a01b0386168086529252808420805460ff19169093179092559051339285917f2f8788117e7eff1d82e926ec794901d17c78024a50270940304540a733656f0d9190a45050565b60008281526001602090815260408083206001600160a01b038516845290915290205460ff161561087d5760008281526001602090815260408083206001600160a01b0385168085529252808320805460ff1916905551339285917ff6391f5c32d9c69d2a47ea670b442974b53935d1edc7fd64eb21e047a839171b9190a45050565b600781015460ff1680611a4b575042816002015411155b15611aa75760078101805460ff1916600117905560405162461bcd60e51b815260206004820152601960248201527f50726f706f73616c206475726174696f6e2065787069726564000000000000006044820152606401610524565b33600090815260056020908152604080832080548251818502810185019093528083529192909190830182828015611afe57602002820191906000526020600020905b815481526020019060010190808311611aea575b5050505050905060005b81518110156107f057818181518110611b2357611b23612433565b602002602001015183600001541415611b7e5760405162461bcd60e51b815260206004820152601960248201527f446f75626c6520766f74696e67206e6f7420616c6c6f776564000000000000006044820152606401610524565b80611b8881612402565b915050611b08565b61087d828261192a565b60008281526001602090815260408083206001600160a01b038516845290915290205460ff1661087d57611bd8816001600160a01b03166014611c1a565b611be3836020611c1a565b604051602001611bf4929190612158565b60408051601f198184030181529082905262461bcd60e51b8252610524916004016122e0565b60606000611c2983600261234a565b611c34906002612332565b67ffffffffffffffff811115611c4c57611c4c612449565b6040519080825280601f01601f191660200182016040528015611c76576020820181803683370190505b509050600360fc1b81600081518110611c9157611c91612433565b60200101906001600160f81b031916908160001a905350600f60fb1b81600181518110611cc057611cc0612433565b60200101906001600160f81b031916908160001a9053506000611ce484600261234a565b611cef906001612332565b90505b6001811115611d74577f303132333435363738396162636465660000000000000000000000000000000085600f1660108110611d3057611d30612433565b1a60f81b828281518110611d4657611d46612433565b60200101906001600160f81b031916908160001a90535060049490941c93611d6d816123b0565b9050611cf2565b508315611dc35760405162461bcd60e51b815260206004820181905260248201527f537472696e67733a20686578206c656e67746820696e73756666696369656e746044820152606401610524565b9392505050565b6040518061018001604052806000815260200160008152602001600081526020016000815260200160008152602001606081526020016060815260200160001515815260200160001515815260200160006001600160a01b0316815260200160006001600160a01b0316815260200160006001600160a01b031681525090565b828054611e56906123c7565b90600052602060002090601f016020900481019282611e785760008555611ebe565b82601f10611e915782800160ff19823516178555611ebe565b82800160010185558215611ebe579182015b82811115611ebe578235825591602001919060010190611ea3565b5061090d9291505b8082111561090d5760008155600101611ec6565b80356001600160a01b0381168114611ef157600080fd5b919050565b60008083601f840112611f0857600080fd5b50813567ffffffffffffffff811115611f2057600080fd5b602083019150836020828501011115611f3857600080fd5b9250929050565b600060208284031215611f5157600080fd5b5035919050565b60008060408385031215611f6b57600080fd5b82359150611f7b60208401611eda565b90509250929050565b600060208284031215611f9657600080fd5b81356001600160e01b031981168114611dc357600080fd5b60008060008060008060808789031215611fc757600080fd5b863567ffffffffffffffff80821115611fdf57600080fd5b611feb8a838b01611ef6565b9098509650602089013591508082111561200457600080fd5b5061201189828a01611ef6565b9095509350612024905060408801611eda565b9150606087013590509295509295509295565b6000806040838503121561204a57600080fd5b823591506020830135801515811461206157600080fd5b809150509250929050565b60008151808452612084816020860160208601612380565b601f01601f19169290920160200192915050565b6000610180825184526020830151602085015260408301516040850152606083015160608501526080830151608085015260a08301518160a08601526120e08286018261206c565b91505060c083015184820360c08601526120fa828261206c565b91505060e083015161211060e086018215159052565b5061010083810151151590850152610120808401516001600160a01b039081169186019190915261014080850151821690860152610160938401511692909301919091525090565b7f416363657373436f6e74726f6c3a206163636f756e7420000000000000000000815260008351612190816017850160208801612380565b7f206973206d697373696e6720726f6c652000000000000000000000000000000060179184019182015283516121cd816028840160208801612380565b01602801949350505050565b6000602080830181845280855180835260408601915060408160051b870101925083870160005b8281101561222e57603f1988860301845261221c858351612098565b94509285019290850190600101612200565b5092979650505050505050565b6020808252825182820181905260009190848201906040850190845b8181101561229c5761228983855180516001600160a01b03168252602080820151908301526040908101511515910152565b9284019260609290920191600101612257565b50909695505050505050565b6020808252825182820181905260009190848201906040850190845b8181101561229c578351835292840192918401916001016122c4565b602081526000611dc3602083018461206c565b602081526000611dc36020830184612098565b81516001600160a01b03168152602080830151908201526040808301511515908201526060810161048e565b600082198211156123455761234561241d565b500190565b60008160001904831182151516156123645761236461241d565b500290565b60008282101561237b5761237b61241d565b500390565b60005b8381101561239b578181015183820152602001612383565b838111156123aa576000848401525b50505050565b6000816123bf576123bf61241d565b506000190190565b600181811c908216806123db57607f821691505b602082108114156123fc57634e487b7160e01b600052602260045260246000fd5b50919050565b60006000198214156124165761241661241d565b5060010190565b634e487b7160e01b600052601160045260246000fd5b634e487b7160e01b600052603260045260246000fd5b634e487b7160e01b600052604160045260246000fdfe44656e6965643a2055736572206973206e6f74206120636f6e7472696275746f7250726f706f73616c204372656174696f6e20416c6c6f77656420666f72205374616b65686f6c64657273206f6e6c79a164736f6c6343000807000a",
  "linkReferences": {},
  "deployedLinkReferences": {}
}