{
  "_format": "hh-sol-artifact-1",
  "contractName": "MerkleWhitelist",
  "sourceName": "contracts/MerkleWhitelist.sol",
  "abi": [
    {
      "inputs": [],
      "stateMutability": "nonpayable",
      "type": "constructor"
    },
    {
      "inputs": [],
      "name": "NotWhitelisted",
      "type": "error"
    },
    {
      "inputs": [],
      "name": "merkleRoot",
      "outputs": [
        {
          "internalType": "bytes32",
          "name": "",
          "type": "bytes32"
        }
      ],
      "stateMutability": "view",
      "type": "function"
    }
  ],
  "bytecode": "0x6080604052348015600f57600080fd5b50605480601d6000396000f3fe6080604052348015600f57600080fd5b506004361060285760003560e01c80632eb4a7ab14602d575b600080fd5b603560005481565b60405190815260200160405180910390f3fea164736f6c6343000807000a",
  "deployedBytecode": "0x6080604052348015600f57600080fd5b506004361060285760003560e01c80632eb4a7ab14602d575b600080fd5b603560005481565b60405190815260200160405180910390f3fea164736f6c6343000807000a",
  "linkReferences": {},
  "deployedLinkReferences": {}
}